:100000000C942A000C944E000C944E000C944E005C
:100010000C944E000C944E000C944E000C944E0028
:100020000C944E000C944E000C944E000C944E0018
:100030000C944E000C944E000C944E000C944E0008
:100040000C944E000C944E000C944E000C944E00F8
:100050000C944E0011241FBECFE5D4E0DEBFCDBF0F
:0C0060000E9436000C943400F894FFCF8E
:10006C008FEF87BB81E088BB2FE33DE093E021500D
:10007C0030409040E1F700C0000018BA2FE33DE09B
:10008C0093E0215030409040E1F700C00000EBCFEE
:04009C000C940000C0
:00000001FF
